S04A0000433A5C55736572735C6F67686F6D5C4F6E6544726976655C4465736B746F705C6578616D4C6962726172795C6578616D4C6962726172795C62696E5C50726F6A6563742E616273C2
S123C000FEC033FDC031270E35ED31EC3169700434FB310326F2FEC035EC31270BED3118C8
S123C0200A30700434F920F13DCF210007D206C0530000C037C57C000000000000000000B9
S123C040000000000000000000000000000000000000001BF2FEFD69F2010269806981693A
S123C060826983698469856986698769886989698A698B698C698D698E698F69F01069F02E
S123C0801169F01269F01369F01469F01569F01669F01769F01869F01969F01A69F01B69C7
S123C0A0F01C69F01D69F01E69F01F69F02069F02169F02269F02369F02469F02569F026A7
S123C0C069F02769F02869F02969F02A69F02B69F02C69F02D69F02E69F02F69F03069F0D6
S123C0E03169F03269F03369F03469F03569F03669F03769F03869F03969F03A69F03B6907
S123C100F03C69F03D69F03E69F03F69F04069F04169F04269F04369F04469F04569F046E6
S123C12069F04769F04869F04969F04A69F04B69F04C69F04D69F04E69F04F69F05069F035
S123C1405169F05269F05369F05469F05569F05669F05769F05869F05969F05A69F05B6946
S123C160F05C69F05D69F05E69F05F69F06069F06169F06269F06369F06469F06569F06626
S123C18069F06769F06869F06969F06A69F06B69F06C69F06D69F06E69F06F69F07069F095
S123C1A07169F07269F07369F07469F07569F07669F07769F07869F07969F07A69F07B6986
S123C1C0F07C69F07D69F07E69F07F69F08069F08169F08269F08369F08469F08569F08666
S123C1E069F08769F08869F08969F08A69F08B69F08C69F08D69F08E69F08F69F09069F0F5
S123C2009169F09269F09369F09469F09569F09669F09769F09869F09969F09A69F09B69C5
S123C220F09C69F09D69F09E69F09F69F0A069F0A169F0A269F0A369F0A469F0A569F0A6A5
S123C24069F0A769F0A869F0A969F0AA69F0AB69F0AC69F0AD69F0AE69F0AF69F0B069F054
S123C260B169F0B269F0B369F0B469F0B569F0B669F0B769F0B869F0B969F0BA69F0BB6905
S123C280F0BC69F0BD69F0BE69F0BF69F0C069F0C169F0C269F0C369F0C469F0C569F0C6E5
S123C2A069F0C769F0C869F0C969F0CA69F0CB69F0CC69F0CD69F0CE69F0CF69F0D069F0B4
S123C2C0D169F0D269F0D369F0D469F0D569F0D669F0D769F0D869F0D969F0DA69F0DB6945
S123C2E0F0DC69F0DD69F0DE69F0DF69F0E069F0E169F0E269F0E369F0E469F0E569F0E625
S123C30069F0E769F0E869F0E969F0EA69F0EB69F0EC69F0ED69F0EE69F0EF69F0F069F013
S123C320F169F0F269F0F369F0F469F0F569F0F669F0F769F0F869F0F969F0FA69F0FB6984
S123C340F0FC69F0FD69F0FE69F0FF1869F2010010EF16C37716C37616C38F16C376C60158
S123C360873BC6143BC73BC60A16C45E1B86C6808716C38420E83D1D0279E0C6E07B027BB2
S123C3804C8D1F3D3BF60279E8817B02793A3DCCFF045B34535B354C39405A3A4F3708FCBE
S123C3A04C39803D1B983B34C601876C8A69896988E6F01551F403437B0343EC823B34ECEE
S123C3C0F014EEF01216C4896C866E84C787CE0001AC8618AE84241AED86EE84B7D416C4FD
S123C3E0846C8A6E883B34B764EE8816C5696C866E84EEF0148E0001B7562D0F8E00042E17
S123C4000A09B75416C577190B1E128D00082710201307407E034C200C07397E03502005DF
S123C42007327E0348ECF0122705F60344200AE6F01551F403447B0344F60342EAF0157B97
S123C44003421C0340A0E6F0157B03417B0345C7871B8C3DE68D537B0346EE88093D3BEC88
S123C460883B188734EC8A3BEC8A3BCC03E8ED881316C3A41B88F60345E48927F9E6897BAC
S123C4800345303D04A401083D3B341B9CEC8CED86136C826D80EC86ED8A13E3806C80ECBF
S123C4A084ED8C13E380B745EC821B88EDB50540186982EC8C261DEE8EED86EC8811280CAB
S123C4C0EC8618C7116D82B746EC88116D846C881869863D972709EE86B7C5CD00002008B0
S123C4E0EE8DE686ED87B7C61135ECF010133B35ECF012ED8413E3B130B7C5CD0000356592
S123C50081A38CB7C518A38A310446113669AF3137323433EEF01011B76532201F252A04EC
S123C5206403044539E78E2706EE8E87C7200BB7C5363469AFEEF013313A1810083A34A3DC
S123C540B1B74620A4310220A04151B7C5415104A40108AE8E22EE2505ACF01024E7316D56
S121C560841869826C886E863D3B341B9C16C4B030ECB5EDB5054030E6E605E50000BF
S105FFFEC02914
S9030000FC
